:0E00000009C4FECFFDCFFCCFFBCFFACFF9CF66
:10000E00F8CFF7CF12C6F5CFF4CFF3CFF2CFF1CFB3
:10001E00F0CFEFCFEECFEDCF000000000000005F7D
:10002E0000000007000700147F147F14242A7F2A83
:10003E00122313086462364955225000050300004E
:10004E00001C2241000041221C0014083E08140826
:10005E00083E080800503000000808080808006034
:10006E006000002010080402000000000000005F85
:10007E0000000007000700147F147F14242A7F2A33
:10008E0012231308646236495522500005030000FE
:10009E00001C2241000041221C0014083E081408D6
:1000AE00083E0808005030000008080808080060E4
:1000BE006000002010080402000000000000005F35
:1000CE0000000007000700147F147F14242A7F2AE3
:1000DE0012231308646236495522500005030000AE
:1000EE00001C2241000041221C0014083E08140886
:1000FE00083E080800503000000808080808006094
:10010E0060000020100804023E5149453E00427F27
:10011E00400042615149462141454B311814127F2E
:10012E001027454545393C4A4949300171090503B7
:10013E003649494936064949291E0036360000001F
:10014E0056360000081422410014141414140041F1
:10015E002214080201510906324979413E7E1111DD
:10016E00117E7F494949363E414141227F4141221C
:10017E001C7F494949417F090909013E4149497A94
:10018E007F0808087F00417F41002040413F017FEA
:10019E00081422417F404040407F020C027F7F04C2
:1001AE0008107F3E4141413E7F090909063E4151FB
:1001BE00215E7F09192946464949493101017F01CE
:1001CE00013F4040403F1F2040201F3F4038403FEE
:1001DE00631408146307087008076151494543000A
:1001EE007F41410002040810200041417F000402BB
:1001FE0001020440404040400001020400205454DB
:10020E0054787F4844443838444444203844444861
:10021E007F3854545418087E0901020C5252523E33
:10022E007F0804047800447D40002040443D007F58
:10023E001028440000417F40007C041804787C089C
:10024E0004047838444444387C14141408081414F4
:10025E00187C7C080404080854545420043F44407D
:10026E00203C4040207C1C2040201C3C4030403C28
:10027E0044281028440C5050503C4464544C4400C4
:10028E000836410000007F000000413608001008CB
:10029E000810087846414678000000000000005F14
:1002AE0000000007000700147F147F14242A7F2A01
:1002BE0012231308646236495522500005030000CC
:1002CE00001C2241000041221C0014083E081408A4
:1002DE00083E0808005030000008080808080060B2
:1002EE006000002010080402000000000000005F03
:1002FE0000000007000700147F147F14242A7F2AB1
:10030E00122313086462364955225000050300007B
:10031E00001C2241000041221C0014083E08140853
:10032E00083E080800503000000808080808006061
:10033E006000002010080402000000000000005FB2
:10034E0000000007000700147F147F14242A7F2A60
:10035E00122313086462364955225000050300002B
:10036E00001C2241000041221C0014083E08140803
:10037E00083E080800503000000808080808006011
:10038E006000002010080402000609090600427FE2
:10039E00400042615149462141454B311814127FAC
:1003AE001027454545393C4A494930017109050335
:1003BE003649494936064949291E0036360000009D
:1003CE00563600000814224100141414141400416F
:1003DE0022140802015109067E1111117E7F49492E
:1003EE0049317F494949367F01010103603E212190
:1003FE007F7F4949494177087F087722414949362D
:10040E007F1008047F7F1009047F7F08142241406B
:10041E003E01017F7F020C027F7F0808087F3E416C
:10042E0041413E7F0101017F7F090909063E41419D
:10043E00412201017F0101274848483F1E217F21AB
:10044E001E63140814633F20203F60070808087FCE
:10045E007F407F407F3F203F207F017F4848307F95
:10046E004830007F007F484830224149493E7F088E
:10047E003E413E462919097F0000000000000000A1
:10048E0001003C0020D22ECACBC0CF25322E756380
:10049E00002055696E203D25342E75422000202007
:1004AE0020202020205562203D2025322E752E251D
:1004BE00312E7542202020202020200020202020B8
:1004CE00202020202020202020202020202020201E
:1004DE002020002021212120CEC1D1CBD3C6C8C2DD
:1004EE00C0CDC8C5202121212000202054203D2D23
:1004FE0025332E692A43204E3A25352E7568200065
:10050E00202054203D2025332E692A43204E3A25A3
:10051E00352E75682000202054203D206E2F63203C
:10052E0020204E3A25352E75682000204D696372C5
:10053E006F4372616674200028544D290020504785
:10054E005349492020762E32200020313A20C0C255
:10055E00D2CE2020202000240020204845542043C5
:10056E004554C82120002020202025332E756320DD
:10057E0020200020323A20D0D3D7CDCEC920002063
:10058E00333A20D1D2CECF2020200020CDC0D1D2E0
:10059E00D0CEC9CAC8200020743420203D25342E68
:1005AE0075632000202020C2D0C5CCDF20CEC1CE66
:1005BE00C3C0D9C5CDC8DF2020200020743520202F
:1005CE003D25342E7563200020CFD0CEC3D0C5C2BA
:1005DE0020C1C5C720CDC0C3D0D3C7CAC8200020F4
:1005EE00547A20203D25332E752A43200020CCC876
:1005FE00CD2ED2C5CCCF2ECEC1CEC3C0D9C5CDC87F
:10060E00DF202000204B7A20203D25342E7520003F
:10061E0020CACECBC8D7C5D1D2C2CE20C7C0CFD369
:10062E00D1CACEC2202000203CC7C0D1CBCECDCA6D
:10063E00C03E2000203C20CACBC0CFC0CD203E20E3
:10064E00002020202020D2C8CF20CFD0C8C2CEC4B8
:10065E00C02020202020200020D0CED2CED0286F47
:10066E006666290020D0CED2CED0286F6E2920000B
:10067E00202020D1C8C3CDC0CB203A2027D0CED247
:10068E00CED02720202000202D20C2DBD5CEC420A6
:10069E002D20002020C4CBDF20C2DBD5CEC4C0204D
:1006AE003E27C2C2CEC4272020002020C7C0CFD3F1
:1006BE00D1CA2025312E75200020C7C0C6C8C3C0A0
:1006CE00CDC8C520200020C7C0D1CBCECDCAC02DED
:1006DE003E200020CACBC0CFC0CD202D3E20200012
:1006EE0020D1D2C0D0D2C5D03A25312E756320008C
:1006FE00CFD0CEC3D0C5C23A25322E75632000208E
:10070E00C7C0D1CBCECDCAC0203C200020CACBC0A2
:10071E00CFC0CD203C2D20200020D0C0C7C3CECDD1
:10072E003A25322E7563200020CFCEC2D2CED0CD48
:10073E00DBC9202000202020C7C0CFD3D1CA202063
:10074E0020002020D0C0C1CED2C02020200020D139
:10075E00C5D2DC20CDCED0CCC020002020CED1D230
:10076E00C0CDCEC220200020CED5CBC0C6C4C5CDB4
:10077E00C8C5200028212920CED8C8C1CAC0200053
:10078E0020CDC520C7C0CFD3D1CA20002020C4CBD6
:10079E00DF20D1C1D0CED1C0203E27C2C2CEC427C9
:1007AE0020200020CDC5D220D2CECAC020200028C5
:1007BE00212920C7C0D9C8D2C020002055696E207B
:1007CE003D25342E7542002155696E203E2032366D
:1007DE0030C221002020C2DBD1CECACEC520CDC072
:1007EE00CFD0DFC6C5CDC8C5202100000100020054
:1007FE00860406000600880401008B018E040100A9
:10080E008C0190040000F894EE27ECBBF1E0FBBFE6
:10081E00EBBFE5BF8DE0A2E0BB27ED938A95E9F72C
:10082E0080E094E0A0E6ED930197E9F7EAEFF7E0B8
:10083E0085919591009761F0A591B59105901590D0
:10084E00BF01F00105900D920197E1F7FB01F0CF8A
:10085E00EFE5EDBFE4E0EEBFC0E6D1E015C3F894DE
:10086E00A0E048D0AAE0B0E0B0DAAED8A5EDAFD89F
:10087E00A0E8ADD8A8EAABD8AFE3A9D8A3EDA7D826
:10088E00A0E0A5D8A0E4A3D8ADE8A1D8A4E19FD854
:10089E00A0E29DD8A0E09BD8A1EA99D8A8EC97D861
:1008AE00AAED95D8A2E193D8A1E891D8AFEC8FD854
:1008BE00A9ED8DD8A1EF8BD8ABED89D8A0E487D860
:1008CE00A4EA26D0A0E008D0A1E014D042D07CD873
:1008DE00A0E02AD078940895AA93E881E03019F424
:1008EE0073D8A6EA15D0A881A13019F46DD8A7EA5D
:1008FE000FD004C1AA93E881E03019F465D8AEEAAE
:10090E0007D0A881A13019F45FD8AFEA01D0F6C0A4
:10091E00AA93F8940EDAA8E740DAA9813EDAA88104
:10092E003CDA16DA789413C0AA93F894598048806A
:10093E004BD8A981A0554BD8EA81EF70AE2F47D87E
:10094E00EA81E295EF70E061AE2FE2DF78942296B5
:10095E00089520DB20E030E040E050E0F89434D8F9
:10096E00A0E0E2DF00E010E0083EE3E01E07A8F49E
:10097E00E0E2F0E02ED8A0E027D02F5F3F4F2E37D9
:10098E00E0E03E0738F020E030E04F5F5F4F1CD8CC
:10099E00A42FCADF0F5F1F4FE7CFE5E05E2E442482
:1009AE007894FFDA26960895AA931A9310E010E031
:1009BE00E9811E1730F4A1E00FD8A0E00DD81F5F1B
:1009CE00F7CF188124960895AA93E6DA10E020E076
:1009DE0030E000E0F894ADD9A8E7DFD9A0E4DDD986
:1009EE0010E0153008F047C0AD81BE81E5E03EDA7B
:1009FE00DF01E12FF0E0EA0FFB1FEA5DFF4F2491CC
:100A0E003327022FAC81A13081F1A230B1F400E086
:100A1E00F901E170E13009F40D5FF901E270E230A5
:100A2E0009F4045FF901E470E43009F4005DF901A2
:100A3E00E870E83009F4005418C0AC81A330B9F462
:100A4E0000E0F901E071E03109F40D5FF901E072A7
:100A5E00E03209F4045FF901E074E03409F4005D5A
:100A6E00F901E078E03809F40054A02F96D9A02FB0
:100A7E0094D91F5FB6CFA0E090D96AD9EC81E0304F
:100A8E0011F4E6E001C0ECE05E0E78948CDA279665
:100A9E000895AA93A981BA81AC91A03019F0EDE71F
:100AAE005E1608F00AC0A981BA81ED91A983BA83B6
:100ABE00F0E08FD7AA8188DFEDCF23960895AA9311
:100ACE0083D78ED7A0E0E5DF19C0AA937DD788D74C
:100ADE00A2E0DFDF79D7A981AF5F87D7A3E0D9DFA7
:100AEE000DC0AA93E881E06CE7B987E08A95F1F72B
:100AFE00369A349BFECF349AE4B1F5B1219608951F
:100B0E0078D7E1E095D90E2E74D7E3E08CD9E021A9
:100B1E0019F172D774D777D711F07AD77CD782D7DD
:100B2E006ED783D709F086D764D7A43008F08AD75A
:100B3E0060D7A13010F4E1E089D78BD7E3E08FD7EF
:100B4E0021F0EAE08FD705DF92D783D7E2E087D78F
:100B5E0019F0EEE187D78BD74CD7EAE069D90E2E84
:100B6E0048D7E0E160D9E02109F45EC023FC09C05A
:100B7E0084D749D711F04CD74ED781D756D709F025
:100B8E0059D77FD73CD735D7E0E148D9E021E1F1FD
:100B9E00E8E07AD77CD723FC37C0F894E0917E0149
:100BAE00A0E0B1E0DDD9E0917F01A1E0B1E0D8D9BC
:100BBE00E0918001A2E0B1E0D3D9E0918101A3E000
:100BCE00B1E0CED967D7A4E0B1E0CAD966D7A5E027
:100BDE00B1E0C6D965D7A6E0B1E0C2D9E0918501F2
:100BEE00A7E0B1E0BDD95FD7AAE0B1E0B9D9E0E0A6
:100BFE0020FCE1E0A8E0B1E0B3D9E0E021FCE1E0C7
:100C0E00A9E0B1E0ADD97894F4D6A13110F0EAE0C4
:100C1E001DD7EFD6AA3010F4E0E118D71AD7E0E1CD
:100C2E001ED711F00FD742D708950A921A92FA9250
:100C3E006A937A938A939A93AA93BA93EA93FA93BE
:100C4E00EFB7EA93F89435D7A93008F0C0989C997D
:100C5E0004C0E0919301EF5F03C0E0919301E15076
:100C6E00E093930126D7A13018F4E1E0E0939301CD
:100C7E0020D7AB3018F0EAE0E0939301B39906C0A9
:100C8E00E0918801EF5F18D71AD702C0E0E014D7C1
:100C9E00B29906C0E0918901EF5F15D710D702C057
:100CAE00E0E011D7B49906C0E0918A01EF5FEFD66C
:100CBE0006D702C0E0E0EBD69FD6A43610F0E3E6EE
:100CCE00FBD6B0D6A43610F0E3E6FDD6DAD6A436BF
:100CDE0010F0E3E6DCD614DFA1E003DF6E0E7F1E1C
:100CEE0076946794A0E0FDDEAE0EBF1EB694A79478
:100CFE00A5E0F7DE8E0E9F1E96948794A091940128
:100D0E00B09195015F9708F44DC0D301E5E0F0E096
:100D1E00B3D8E0938D01F0938E01F501ABE0B0E016
:100D2E009DD8DF01E9E2F0E0A7D8D0D6F40167D86C
:100D3E00E050F040DF0100D9F0E0CDD6D1D6F297E9
:100D4E00CAD6E0E0E0939401E0939501E09196011C
:100D5E00EF5FE0939601A0918C01A13028F0E09115
:100D6E008C01E150E0938C01C0D661F0A091960108
:100D7E00BB27E2E0F0E0BBD8309711F0689401C0D9
:100D8E00E89422F8A0919601AB3360F0E0E0E09396
:100D9E009601EAE0E0938C012CD6A03219F4A7E973
:100DAE00B1E0A8D6A4E9B1E0A5D67894E991EFBF59
:100DBE00F991E991B991A991999189917991699155
:100DCE00F990199009901895939A9AD6929A089537
:100DDE00929896D693980895F894BBDDEFE0F0E0E4
:100DEE0092D6959A95D6309731F097D6E2E9F4E0FF
:100DFE0097D6A3D6F7CF95989498ABDD78940895AF
:100E0E008CD6EFE9F4E0A1D6ECEAF4E0E2D5ABD66D
:100E1E00B1D6A9D669D8B3D688E094D52C96A5E0DC
:100E2E004EDE63D671F022FE04C077D6EAECF4E013
:100E3E0003C073D6E1EEF4E0FA93EA93A4D6A7E0EA
:100E4E003EDEA0919201AA233AF467D6E8EFF4E0D1
:100E5E00C0D546D6C8D705C060D6EEE0F5E0B9D508
:100E6E003FD6D2D760D893D688E06CD52C9696D63E
:100E7E00A73EEFEFBE0734F450D6E4E2F5E0A9D575
:100E8E0086D691D694D60895E0E0E8BBE3E2E7BBC0
:100E9E00E0E0E5BBE4BBE2BBECEFE1BBE5E0E3BFCA
:100EAE00E0E0E2BFE1E0E9BFE0E0E5BFEAB9E0E89B
:100EBE00E8B9E0ECE7B9E1E8E6B9E0E0E0BFE1E08F
:100ECE00C5D5A0E0B1E038D8E0937E01A1E0B1E055
:100EDE0033D8E0937F01A2E0B1E02ED8E0938001F9
:100EEE00A3E0B1E029D8E0938101A4E0B1E024D8D9
:100EFE0060D6A5E0B1E020D85FD6A6E0B1E01CD860
:100F0E005ED6A7E0B1E018D8E0938501A8E0B1E085
:100F1E0013D83BD820F8A9E0B1E00ED836D821F886
:100F2E00A6D5ECEDF0E0D2D5FFD6789498DCF5D5C9
:100F3E00E9E3F5E047D648D6EDE2EA93A3E055D5CE
:100F4E00E6E4F5E03FD6E9D5A1E0A3DD3DD5A6E088
:100F5E004CD5EBE4F5E036D6E0D5A1E09ADD36D6F9
:100F6E00F89423FC02C0A0E001C0A1E0B5DC7894A7
:100F7E00A0919701B09198011A9730F1F8942BD661
:100F8E003196E6D7E0E0E0939701E093980123D6FF
:100F9E00BF01A8E7B0E056D70E2EFB01A8E5B2E0E0
:100FAE001ED6A0EBB4E01BD6A8E0B7E018D6A0E69C
:100FBE00B9E048D7E02939F00ED63196C9D7ADE061
:100FCE00B1E0E1E0CDD7789423D5F0E0E130A0E0B8
:100FDE00FA0709F04CC055D5A23640F067D5F89403
:100FEE00ADE0B1E0E0E0BCD77894FDD5E0E0E09371
:100FFE008701A0918C01A13038F08FD5E8E5F5E09E
:10100E00E1D5E2D5FDDE0AC0A4DC87D5E5E6F5E044
:10101E00D9D5DAD5A4E6B0E0D8D621DCE6D5AC3801
:10102E00E0E0BE0710F0E6D508F1E4D508F0939A9B
:10103E00E0917F01E4D5E5D561F06FD5E7E6F5E007
:10104E00C1D5E2D5E4D5D5D4A13009F0C4C275D549
:10105E00F2CFCBD5A738E0E0BE0728F0C6D5AF302B
:10106E00E1E0BE0718F0EEE1F1D401D5B4C2E230F2
:10107E00A0E0FA0769F4E1E0E09387014ED5E1E8DC
:10108E00F5E0A0D5A1D5BCDEB5D508F0C3D5A3C279
:10109E00E330A0E0FA0751F440D5EDE8F5E092D543
:1010AE0093D5AEDEA7D508F0B5D595C2EA30A0E04F
:1010BE00FA0789F532D5E9E9F5E084D585D52DD540
:1010CE00EAECF4E07FD5A5E0FADC27D5E5EAF5E019
:1010DE0080D4E0D4A4D598D5E2EBF5E073D567D5EE
:1010EE00CCD4A2D521F0D6D4EF5F63D57CD5C7D4AE
:1010FE00A4D521F0CFD4E1505CD5A8D5A091820122
:10110E00AD3310F0ECE355D5A0918201A13010F46F
:10111E00E1E04FD560C2EB30A0E0FA0731F5FDD427
:10112E00E9ECF5E056D4B9D47AD56ED5E6EDF5E016
:10113E0049D53DD5A2D478D521F0AFD4EB5F3CD5BF
:10114E0052D59DD47AD521F0A8D4E55035D57ED58B
:10115E00A0918301AD3310F0ECE32ED5A091830165
:10116E00A53010F4E5E028D536C2EC30A0E0FA0741
:10117E0031F5D3D4EDEEF5E02CD492D450D544D540
:10118E00EBEFF5E01FD513D578D44ED521F088D4EA
:10119E00EB5F15D528D573D450D521F081D4E55009
:1011AE000ED554D5A0918401AB3510F0EAE507D5E4
:1011BE00A0918401A53010F4E5E001D50CC2ED300C
:1011CE00A0E0FA0719F5A9D4E2E1F6E002D46BD457
:1011DE0026D51AD5EEE1F6E0F5D4E9D44ED424D5D1
:1011EE0021F061D4EF5F34D5FED449D426D521F059
:1011FE005AD4E1502DD52AD52ED5A73010F0E6E0E1
:10120E0027D52CD510F4E1E023D5E5C1EE30A0E0D2
:10121E00FA07F1F420FC04C080D4E5E3F6E003C045
:10122E007CD4E2E4F6E0FA93EA93ADD4EDD4EFE4A5
:10123E00F6E0C8D4BCD421D4F7D419F0E1E024D41C
:10124E003BD41DD4FAD419F0E1E01ED43CD4C3C172
:10125E00EF30A0E0FA07F1F421FC04C05ED4E6E61C
:10126E00F6E003C05AD4E2E7F6E0FA93EA938BD4A1
:10127E00CBD4EEE7F6E0A6D49AD4FFD3D5D419F0AA
:10128E00E2E002D419D4FBD3D8D419F0E2E0FCD3B7
:10129E001AD4A1C1E031A0E0FA0751F43ED4E5E939
:1012AE00F6E090D4B1D4E1EAF6E08CD480D493C1C8
:1012BE00EE31A0E0FA0709F075C04BDB2ED4E8EB57
:1012CE00F6E087D3F0D3ABD47FD4CBD426D4E7ECDF
:1012DE00F6E078D4C9D4949AC9D48CF4969AC1D431
:1012EE0020FC07C01AD4E4EDF6E06CD4BDD4969879
:1012FE0005C013D4E1EEF6E065D4B6D4B2D4D9D39A
:10130E00A33008F4C09AE091810179D47AD489F09F
:10131E0004D4EEEEF6E0B0D446D4A6D4A2D40DD4C6
:10132E00C8D3A83028F0E0E0E0939901E0939A0149
:10133E00EDCFC098AFD363D499D4ECF462D449F016
:10134E00ECD3EEEFF6E098D42ED48ED48AD4F5D327
:10135E00F5CF969820FC08C0E0D3EDE0F7E032D44C
:10136E0083D4CED3979A06C0D8D3EAE1F7E02AD435
:10137E007BD477D476D49798E5E0F0E0C4D341D40B
:10138E0049F0CBD3E7E2F7E077D40DD46DD469D42E
:10139E00D4D3F5CF63D418F086D3E15059D4EFE10E
:1013AE0055D319C1EF31A0E0FA0709F03FC0D1DAE9
:1013BE0080D3A330E8F4949851D4A8F0AED3E6E3EA
:1013CE00F7E000D421D4E3E4F7E0FCD3A5E07DDB25
:1013DE00A0E2BEE4FAD442D419F4A0E2BEE4F5D4FD
:1013EE00EEE134D304C0E8E231D3F6DCF4C01DC024
:1013FE00E0918501D3D3F0E0AE17BF076CF44DD367
:10140E00FED3FFD349F089D3EEEFF6E035D4CBD33C
:10141E002BD427D492D3F5CF809B04C030D4E2E0F6
:10142E0036D3D9C0D1DCE0E211D3D5C0E032A0E092
:10143E00FA07B9F572D3E0E5F7E0C4D3C5D3E0DC23
:10144E0022D421F5D2D3A739E0E0BE0728F0CDD3C0
:10145E00AA3FE0E0BE0708F018C0E0918001CFD3AC
:10146E00D0D341F05AD3ECE5F7E0ACD3CDD3CFD304
:10147E0064D3F6CFBAD3AD38E0E0BE0710F007D490
:10148E0008F003C0E1E2EED2A6C005C0FAD2A53143
:10149E0010F0E1E2E7D2809B03C09ADCF0D306D3D2
:1014AE009AC0E132A0E0FA0781F537D3E9E6F7E01A
:1014BE0089D38AD38DDCD5D3F0D2A1D3A2D3D9F0E0
:1014CE002CD3E5E7F7E07ED39FD3A1D336D3DBD37E
:1014DE0089F48BD3AC38E0E0BE0710F08BD350F01C
:1014EE001CD3E7E6F5E06ED38FD391D36DDCE0E24B
:1014FE00B9D271C0E3CF70DCC6D311F4E1E001C004
:10150E00E3E0E0938B01949866C0E832A0E0FA071E
:10151E00B1F403D3E2E8F7E055D356D3FED2EEE8AA
:10152E00F7E050D371D3EAE9F7E04CD340D399D327
:10153E004DD3A7D2A53110F085D2B8D24CC0E93226
:10154E00A0E0FA07B1F4E9D2E2E8F7E03BD33CD3EE
:10155E00E4D2E1EBF7E036D357D3EAE9F7E032D342
:10156E0026D37FD333D38DD2A53110F06BD29ED23A
:10157E0032C0EA32A0E0FA0771F5939A92989498E5
:10158E0096989798C098C9D2EDEBF7E01BD31CD371
:10159E007ED338F4C2D2E9ECF7E0D7D2EAE9F7E02D
:1015AE0007C0BBD2E5EDF7E00DD32ED3E2EEF7E0A8
:1015BE00FA93EA93E8D2FBD254D308D316D3EFEFC3
:1015CE00F0E046D40E2E5DD2E4E137D4E02119F0DE
:1015DE0039D290986BD2C4CCFFCF5ED3DFD45FD319
:1015EE00129697D43097F1F05AD35CD38F0130977F
:1015FE0061F00230E0E01E0770F0F80131978F01C4
:10160E00AA81BB811496ED93FC9349D3129672D2A4
:10161E003197AC81A08343D37CD4FF2312F03FD308
:10162E0069D205C03CD3EFEFFFEFED93FC93BDD431
:10163E002596089531D32C97ADD410E0AA89BB8995
:10164E00E0E0F0E0ED93FC93E88DF98D3196E88FB4
:10165E00F98F3197E4912E2FE03009F46DC1E12F0F
:10166E00E03031F4253211F411E001C01ED363C114
:10167E00E130B9F4253211F418D35CC112E0E0E088
:10168E00E98B00E02D3211F401E055C12B3219F433
:10169E00EBE2E98B50C1203219F4E0E2E98B4BC149
:1016AE0002C0E23039F450E013E0203311F4006848
:1016BE0042C102C0E33091F4203310F02A3308F017
:1016CE0007C0AAE05A9F502DE22FE0535E0F33C1A0
:1016DE0040E02E3211F414E02EC10EC0E43091F42D
:1016EE00203310F02A3308F007C0AAE04A9F402D9D
:1016FE00E22FE0534E0F1FC12C3619F4026015E095
:10170E001AC103C0E53009F016C1E22FE33639F4F1
:10171E00D3D2D5D2D1D2A481AA93D5D20BC1E337DD
:10172E0031F4D7D2D8D2DAD238D11E2F08C0E03752
:10173E0091F4CFD2D0D2D2D23BD11E2F08600F77E8
:10174E00403011F0411708F001C0142F40E0E0E0E6
:10175E00E88B30E062C0E43611F0E93611F4046033
:10176E0002C0E53791F4EAE0E88B01FF07C0E0E044
:10177E00FAEC6AE97BE3B7D21AE01FC0E0E1F7E2C8
:10178E0060E070E0B0D215E018C0E83511F40860E2
:10179E0003C0E83709F0CEC0E0E1E88B01FF07C0D7
:1017AE00E0E0F0E060E070E19ED218E006C0E0E01C
:1017BE00F0E160E070E097D214E0403011F00F7766
:1017CE0001C041E001FF06C084D2AE89BF891496E4
:1017DE00A4D30AC002FF04C07CD27DD215D304C0AC
:1017EE0078D279D266277727EC87FD876E877F8739
:1017FE0002FF12C0AF85AA2342F4EC85FD856E85EB
:10180E007F85F5D275D2EDE2E98BE989E03019F0EA
:10181E001F5F4F5F01C00B7F342F00FD13C01517E4
:10182E0010F4351708F00EC007FF08C002FF04C001
:10183E000B7F2989115001C020E301C020E235D26F
:10184E005150EDCF141788F4006102FF06C055D237
:10185E00503009F0515011504150E0E3EA9333D229
:10186E00503009F051504150EDCF312FE889E03022
:10187E00B1F4303099F003FF06C0EE81FF8125915F
:10188E00EE83FF8305C0AE81BF812D91AE83BF83F2
:10189E000CD2503009F051503150EBCF42C031D202
:1018AE00FED22E2F2A3030F003FF02C0295C01C079
:1018BE00295A01C0205D04FD1EC0213348F42AD2EE
:1018CE00A130E0E0BE07E0E08E07E0E09E0709F4FD
:1018DE000BC0431740F4531710F000FF01C00FC0A8
:1018EE0020E207FF08C020E3006102FF04C005D21A
:1018FE00503009F05150D9D1503009F0515031507B
:10190E0000D203D3F5D1E88905D2FF2766277727C2
:10191E00C6D2E9D1E885F9856A857B8532D309F08F
:10192E00BECF00FF07C0503029F05150E0E2EA93DD
:10193E00CAD1F9CF10E088CEAA89BB89EAD231D3B9
:10194E006A960895FF92F82E269726D3E8D13097FF
:10195E0019F4EFEFFFEF1DC0DE01169640D28D0198
:10196E00DED1EE83FF83E0E0E887E987DE011A9699
:10197E0036D2CFD22ED01A930A93E4EFFAE029D0C2
:10198E00DE011A9657DE9F01AE81BF81E0E0EC9337
:10199E00F90109D32A96FF9008957ED1A991B991A4
:1019AE00EE27FF276D91662311F03196FBCF089538
:1019BE0073D1AA27BB27E991F9910590002011F068
:1019CE001196FBCFFD010895E0E0EA930895A0D7AC
:1019DE00FBCFFA93EA9308957FD7AA81BB81F5C115
:1019EE00A981A2D7E0E6F1E0F4CF9ED7E0E6F1E0E0
:1019FE00F0CFA0918B010895A09188010895E1E0A8
:101A0E0008D20E2E0895F8DFEAE017D2E0290895E5
:101A1E00E0918B010895EF5FE0938B01E2E0E0939C
:101A2E0088010895A09189010895FCDFEAE005D2AE
:101A3E00E0290895EDDFE150E0938B01E2E0E093C1
:101A4E0089010895E3E0E0938B010895E0938B0103
:101A5E000895A0918A01E4E1F0D10E2ECACFD9D11A
:101A6E00E0210895F3DFE2E0E0938A010895AAE011
:101A7E00B1E062D2E09386010895BEDFC0CFD2DF1F
:101A8E00BECFA0918A0108952E26E2E00895E0933C
:101A9E008A010895E09182010895E09183010895ED
:101AAE00E09184010895E09186010895E2E0EFDF70
:101ABE0050C7A09193010895E09388010895ECE337
:101ACE00E0938C010895E09389010895E0938F01CE
:101ADE00F09390010895E0939101F093920108958F
:101AEE00E0919101F09192010895ADE0B1E024D220
:101AFE00E0300895ED91FD913196FE93EE930895A9
:101B0E00A0EDB7E062C1E0939901F0939A010895B8
:101B1E00E0919901F0919A010895E0E6F1E059CF34
:101B2E0058DFF6DF66277727FED184E00BDF289695
:101B3E00A5E0CBD7A0EABFE048C1A9E9B1E0ED919D
:101B4E00FD913197FE93EE93089543DFE0918F015F
:101B5E00F091900166277727E6D184E0F3DE289690
:101B6E00A3E0B3D7DACFA0918D01B0918E01EAE058
:101B7E00F0E0089581D166277727D5D1089566279D
:101B8E007727D1D1089580E0DDDE24960895ABE06D
:101B9E00B1E0CED1DF01E6E0F0E0ECCFA091910113
:101BAE00B0919201089584E0CDDE28960895A6E0C6
:101BBE0086C7E09382010895E09383010895E09330
:101BCE008401089506DFDFCFA0E07FC7E8EEF3E0E3
:101BDE0000DFA3E0E9C6ABE0B1E0AAD1089532D1AF
:101BEE000E2AFB010895E2E067CFA0918F01B0911C
:101BFE0090010895FADFAA30E1E0BE070895F0E003
:101C0E0082CF86DF30970895A3E05FD786CFE4E7D3
:101C1E00F5E086CFEAE21ADFDFD8939A9AC6FF275D
:101C2E006627772780D1BFCFE7DEEAE006D10E2AFE
:101C3E00A0E023FCA1E0E1E012CFF4DEEAE0FDD06B
:101C4E000E2AA0E023FCA1E0E1E009CFE2E03BCFC9
:101C5E00E09386010895A09186010895FCDFA130DE
:101C6E000895A0EABFE0B1C0A3E02FC719DF96DF49
:101C7E00F0E0AE17BF070895ACDE4ADF80CF949830
:101C8E00E9E2E4DEA9C8E0918701E0300895ADDF16
:101C9E00AF3FE0E0BE070895BA93AA930895AA81D4
:101CAE00BB810895149635D108952A93AB89BC89CA
:101CBE00ED89FE8909950895EE89FF890895349777
:101CCE00EE8BFF8B0895AB89BC89ED89FE89099552
:101CDE000895F2DFF4CFAE89BF89E4CFEE83FF83A0
:101CEE00AE81BF810895E887F9876A877B8708955B
:101CFE00EC87FD876E877F8708950B7FE989EA93CE
:101D0E00E2CFE885F9856A857B85AC85BD858E85B4
:101D1E009F850895A885B9858A859B850895DE01DE
:101D2E001C965DD0F6D00895C598C198BD9AB99805
:101D3E0015C0B998BD98EE270000B19B0895B59BCC
:101D4E00089504D0B99A02D0BD9AE1E063E007C0CD
:101D5E00B99ABD9A03D0BD98F9DFB99867E06A9534
:101D6E00F1F7089578E0BD98F1DFB59BFECFEEDF79
:101D7E008894B1990894BD9AF1DFEE1F7A9599F780
:101D8E007A2F772311F4B99801C0B99ADFDFBD9885
:101D9E00E5DFBD9ADBDFB998D9CF78E0AA0F10F452
:101DAE00B99801C0B99ADADFBD98D0DFB59BFECFE6
:101DBE00CDDFBD9A7A9591F7B998C8DFBD98CEDF81
:101DCE00E1E0B199EE27BD9AC1CF109639F084EFBC
:101DDE0091E00197F1F7A8951197C9F7089500249E
:101DEE00AF0DB01D0895F195E195F0400895F09571
:101DFE0060957095E195FF4F6F4F7F4F0895F69563
:101E0E00E795F695E79508956F2F660F660B762F7B
:101E1E000895EA17E1E009F0EE270895EA17E1E0E8
:101E2E0009F4EE270895EA17E1E008F4EE27089585
:101E3E00AE17E1E008F4EE270895EA17E1E008F0A6
:101E4E00EE270895EA17FB07E1E009F0EE27089563
:101E5E00AE17BF07E1E008F0EE270895FA9FF02DC8
:101E6E00EB9FF00DEA9FE02DF10D08956E2F6A9F06
:101E7E00F0016B9FF00D08950024112490E1AA0F3C
:101E8E00BB1F001C111C0E1A1F0A18F40E0E1F1E6B
:101E9E0001C0A1609A9599F7FD01D00108953F9375
:101EAE004F935F93002411244427552730E2AA0F45
:101EBE00BB1F881F991F001C111C441F551F0E1A93
:101ECE001F0A460B570B28F40E0E1F1E461F571FD8
:101EDE0001C0A1603A9559F7FD01BC01D001CA01BC
:101EEE005F914F913F910895C7DFFD010895E894EA
:101EFE00B7FF04C0A095B09511966894F7FD73DFF7
:101F0E00BBDFFD010EF46FDF0895C9DFFD01BC01DB
:101F1E000895ED91FC9111970895ED91FD916D91BC
:101F2E007C91139708957A936A93FA93EA9308959E
:101F3E00119602D0FE2F1197E199FECFFF93FFB7B6
:101F4E00F894AEBBBFBBE09AEDB3FFBFFF9108950F
:101F5E0007D01196EF93EF2F03D0EF9111970895BD
:101F6E00E19B02C0A895FCCF9FB7F894AEBBBFBB58
:101F7E00E09A8DB3E81719F0EDBBE29AE19A9FBF94
:101F8E0008953097604070400895E894EE2309F06C
:101F9E00689408955A934A933A932A931A930A93FC
:101FAE0008955D814C813B812A81198108810895B4
:00000001FF
